{
  "contractName": "Contest",
  "abi": [
    {
      "inputs": [],
      "payable": false,
      "stateMutability": "nonpayable",
      "type": "constructor"
    },
    {
      "constant": true,
      "inputs": [],
      "name": "admin",
      "outputs": [
        {
          "internalType": "address",
          "name": "",
          "type": "address"
        }
      ],
      "payable": false,
      "stateMutability": "view",
      "type": "function"
    },
    {
      "constant": true,
      "inputs": [
        {
          "internalType": "uint256",
          "name": "",
          "type": "uint256"
        }
      ],
      "name": "contestants",
      "outputs": [
        {
          "internalType": "uint256",
          "name": "id",
          "type": "uint256"
        },
        {
          "internalType": "string",
          "name": "name",
          "type": "string"
        },
        {
          "internalType": "uint256",
          "name": "voteCount",
          "type": "uint256"
        },
        {
          "internalType": "string",
          "name": "party",
          "type": "string"
        },
        {
          "internalType": "uint256",
          "name": "age",
          "type": "uint256"
        },
        {
          "internalType": "string",
          "name": "qualification",
          "type": "string"
        },
        {
          "internalType": "string",
          "name": "partyLogo",
          "type": "string"
        }
      ],
      "payable": false,
      "stateMutability": "view",
      "type": "function"
    },
    {
      "constant": true,
      "inputs": [],
      "name": "contestantsCount",
      "outputs": [
        {
          "internalType": "uint256",
          "name": "",
          "type": "uint256"
        }
      ],
      "payable": false,
      "stateMutability": "view",
      "type": "function"
    },
    {
      "constant": true,
      "inputs": [],
      "name": "state",
      "outputs": [
        {
          "internalType": "enum Contest.PHASE",
          "name": "",
          "type": "uint8"
        }
      ],
      "payable": false,
      "stateMutability": "view",
      "type": "function"
    },
    {
      "constant": true,
      "inputs": [
        {
          "internalType": "address",
          "name": "",
          "type": "address"
        }
      ],
      "name": "voters",
      "outputs": [
        {
          "internalType": "bool",
          "name": "hasVoted",
          "type": "bool"
        },
        {
          "internalType": "uint256",
          "name": "vote",
          "type": "uint256"
        },
        {
          "internalType": "bool",
          "name": "isRegistered",
          "type": "bool"
        }
      ],
      "payable": false,
      "stateMutability": "view",
      "type": "function"
    },
    {
      "constant": false,
      "inputs": [
        {
          "internalType": "enum Contest.PHASE",
          "name": "x",
          "type": "uint8"
        }
      ],
      "name": "changeState",
      "outputs": [],
      "payable": false,
      "stateMutability": "nonpayable",
      "type": "function"
    },
    {
      "constant": false,
      "inputs": [
        {
          "internalType": "string",
          "name": "_name",
          "type": "string"
        },
        {
          "internalType": "string",
          "name": "_party",
          "type": "string"
        },
        {
          "internalType": "uint256",
          "name": "_age",
          "type": "uint256"
        },
        {
          "internalType": "string",
          "name": "_qualification",
          "type": "string"
        },
        {
          "internalType": "string",
          "name": "_partyLogo",
          "type": "string"
        }
      ],
      "name": "addContestant",
      "outputs": [],
      "payable": false,
      "stateMutability": "nonpayable",
      "type": "function"
    },
    {
      "constant": false,
      "inputs": [
        {
          "internalType": "address",
          "name": "user",
          "type": "address"
        }
      ],
      "name": "voterRegistration",
      "outputs": [],
      "payable": false,
      "stateMutability": "nonpayable",
      "type": "function"
    },
    {
      "constant": false,
      "inputs": [
        {
          "internalType": "uint256",
          "name": "_contestantId",
          "type": "uint256"
        }
      ],
      "name": "vote",
      "outputs": [],
      "payable": false,
      "stateMutability": "nonpayable",
      "type": "function"
    },
    {
      "constant": false,
      "inputs": [],
      "name": "resetPhase",
      "outputs": [],
      "payable": false,
      "stateMutability": "nonpayable",
      "type": "function"
    }
  ],
  "bytecode": "0x608060405234801561001057600080fd5b50336000806101000a81548173ffffffffffffffffffffffffffffffffffffffff021916908373ffffffffffffffffffffffffffffffffffffffff1602179055506000600460006101000a81548160ff0219169083600281111561007057fe5b0217905550611a91806100846000396000f3fe608060405234801561001057600080fd5b506004361061009e5760003560e01c8063a3ec138d11610066578063a3ec138d146103da578063c19d93fb14610448578063dfd50f5214610474578063ec63d1c814610674578063f851a440146106925761009e565b80630121b93f146100a3578063268f1153146100d15780633b24fe961461010257806344f919f81461014657806378c4511314610150575b600080fd5b6100cf600480360360208110156100b957600080fd5b81019080803590602001909291905050506106dc565b005b610100600480360360208110156100e757600080fd5b81019080803560ff169060200190929190505050610a41565b005b6101446004803603602081101561011857600080fd5b81019080803573ffffffffffffffffffffffffffffffffffffffff169060200190929190505050610ba6565b005b61014e610d46565b005b6103d8600480360360a081101561016657600080fd5b810190808035906020019064010000000081111561018357600080fd5b82018360208201111561019557600080fd5b803590602001918460018302840111640100000000831117156101b757600080fd5b91908080601f016020809104026020016040519081016040528093929190818152602001838380828437600081840152601f19601f8201169050808301925050505050505091929192908035906020019064010000000081111561021a57600080fd5b82018360208201111561022c57600080fd5b8035906020019184600183028401116401000000008311171561024e57600080fd5b91908080601f016020809104026020016040519081016040528093929190818152602001838380828437600081840152601f19601f82011690508083019250505050505050919291929080359060200190929190803590602001906401000000008111156102bb57600080fd5b8201836020820111156102cd57600080fd5b803590602001918460018302840111640100000000831117156102ef57600080fd5b91908080601f016020809104026020016040519081016040528093929190818152602001838380828437600081840152601f19601f8201169050808301925050505050505091929192908035906020019064010000000081111561035257600080fd5b82018360208201111561036457600080fd5b8035906020019184600183028401116401000000008311171561038657600080fd5b91908080601f016020809104026020016040519081016040528093929190818152602001838380828437600081840152601f19601f820116905080830192505050505050509192919290505050610f42565b005b61041c600480360360208110156103f057600080fd5b81019080803573ffffffffffffffffffffffffffffffffffffffff16906020019092919050505061149a565b604051808415151515815260200183815260200182151515158152602001935050505060405180910390f35b6104506114de565b6040518082600281111561046057fe5b60ff16815260200191505060405180910390f35b6104a06004803603602081101561048a57600080fd5b81019080803590602001909291905050506114f1565b604051808881526020018060200187815260200180602001868152602001806020018060200185810385528b818151815260200191508051906020019080838360005b838110156104fe5780820151818401526020810190506104e3565b50505050905090810190601f16801561052b5780820380516001836020036101000a031916815260200191505b50858103845289818151815260200191508051906020019080838360005b83811015610564578082015181840152602081019050610549565b50505050905090810190601f1680156105915780820380516001836020036101000a031916815260200191505b50858103835287818151815260200191508051906020019080838360005b838110156105ca5780820151818401526020810190506105af565b50505050905090810190601f1680156105f75780820380516001836020036101000a031916815260200191505b50858103825286818151815260200191508051906020019080838360005b83811015610630578082015181840152602081019050610615565b50505050905090810190601f16801561065d5780820380516001836020036101000a031916815260200191505b509b50505050505050505050505060405180910390f35b61067c611793565b6040518082815260200191505060405180910390f35b61069a611799565b604051808273ffffffffffffffffffffffffffffffffffffffff1673ffffffffffffffffffffffffffffffffffffffff16815260200191505060405180910390f35b60018060028111156106ea57fe5b600460009054906101000a900460ff16600281111561070557fe5b14610778576040517f08c379a000000000000000000000000000000000000000000000000000000000815260040180806020018281038252601d8152602001807f496e76616c696420737461746520666f72207468697320616374696f6e00000081525060200191505060405180910390fd5b600260003373ffffffffffffffffffffffffffffffffffffffff1673ffffffffffffffffffffffffffffffffffffffff16815260200190815260200160002060020160009054906101000a900460ff1661083a576040517f08c379a00000000000000000000000000000000000000000000000000000000081526004018080602001828103825260178152602001807f566f746572206973206e6f74207265676973746572656400000000000000000081525060200191505060405180910390fd5b600260003373ffffffffffffffffffffffffffffffffffffffff1673ffffffffffffffffffffffffffffffffffffffff16815260200190815260200160002060000160009054906101000a900460ff16156108fd576040517f08c379a00000000000000000000000000000000000000000000000000000000081526004018080602001828103825260178152602001807f566f7465722068617320616c726561647920766f74656400000000000000000081525060200191505060405180910390fd5b600354821115610975576040517f08c379a00000000000000000000000000000000000000000000000000000000081526004018080602001828103825260158152602001807f496e76616c696420636f6e74657374616e74204944000000000000000000000081525060200191505060405180910390fd5b60016000838152602001908152602001600020600201600081548092919060010191905055506001600260003373ffffffffffffffffffffffffffffffffffffffff1673ffffffffffffffffffffffffffffffffffffffff16815260200190815260200160002060000160006101000a81548160ff02191690831515021790555081600260003373ffffffffffffffffffffffffffffffffffffffff1673ffffffffffffffffffffffffffffffffffffffff168152602001908152602001600020600101819055505050565b6000809054906101000a900473ffffffffffffffffffffffffffffffffffffffff1673ffffffffffffffffffffffffffffffffffffffff163373ffffffffffffffffffffffffffffffffffffffff1614610ae6576040517f08c379a0000000000000000000000000000000000000000000000000000000008152600401808060200182810382526022815260200180611a3b6022913960400191505060405180910390fd5b600460009054906101000a900460ff166002811115610b0157fe5b816002811115610b0d57fe5b11610b80576040517f08c379a00000000000000000000000000000000000000000000000000000000081526004018080602001828103825260188152602001807f496e76616c6964207374617465207472616e736974696f6e000000000000000081525060200191505060405180910390fd5b80600460006101000a81548160ff02191690836002811115610b9e57fe5b021790555050565b6000809054906101000a900473ffffffffffffffffffffffffffffffffffffffff1673ffffffffffffffffffffffffffffffffffffffff163373ffffffffffffffffffffffffffffffffffffffff1614610c4b576040517f08c379a0000000000000000000000000000000000000000000000000000000008152600401808060200182810382526022815260200180611a3b6022913960400191505060405180910390fd5b6000806002811115610c5957fe5b600460009054906101000a900460ff166002811115610c7457fe5b14610ce7576040517f08c379a000000000000000000000000000000000000000000000000000000000815260040180806020018281038252601d8152602001807f496e76616c696420737461746520666f72207468697320616374696f6e00000081525060200191505060405180910390fd5b6001600260008473ffffffffffffffffffffffffffffffffffffffff1673ffffffffffffffffffffffffffffffffffffffff16815260200190815260200160002060020160006101000a81548160ff0219169083151502179055505050565b6000809054906101000a900473ffffffffffffffffffffffffffffffffffffffff1673ffffffffffffffffffffffffffffffffffffffff163373ffffffffffffffffffffffffffffffffffffffff1614610deb576040517f08c379a0000000000000000000000000000000000000000000000000000000008152600401808060200182810382526022815260200180611a3b6022913960400191505060405180910390fd5b6002806002811115610df957fe5b600460009054906101000a900460ff166002811115610e1457fe5b14610e87576040517f08c379a000000000000000000000000000000000000000000000000000000000815260040180806020018281038252601d8152602001807f496e76616c696420737461746520666f72207468697320616374696f6e00000081525060200191505060405180910390fd5b6000600190505b6003548111610f125760016000828152602001908152602001600020600080820160009055600182016000610ec3919061190d565b6002820160009055600382016000610edb919061190d565b6004820160009055600582016000610ef3919061190d565b600682016000610f03919061190d565b50508080600101915050610e8e565b5060006003819055506000600460006101000a81548160ff02191690836002811115610f3a57fe5b021790555050565b6000809054906101000a900473ffffffffffffffffffffffffffffffffffffffff1673ffffffffffffffffffffffffffffffffffffffff163373ffffffffffffffffffffffffffffffffffffffff1614610fe7576040517f08c379a0000000000000000000000000000000000000000000000000000000008152600401808060200182810382526022815260200180611a3b6022913960400191505060405180910390fd5b6000806002811115610ff557fe5b600460009054906101000a900460ff16600281111561101057fe5b14611083576040517f08c379a000000000000000000000000000000000000000000000000000000000815260040180806020018281038252601d8152602001807f496e76616c696420737461746520666f72207468697320616374696f6e00000081525060200191505060405180910390fd5b60008651116110fa576040517f08c379a00000000000000000000000000000000000000000000000000000000081526004018080602001828103825260148152602001807f4e616d652063616e6e6f7420626520656d70747900000000000000000000000081525060200191505060405180910390fd5b6000600190505b600354811161128c57866040516020018082805190602001908083835b60208310611141578051825260208201915060208101905060208303925061111e565b6001836020036101000a038019825116818451168082178552505050505050905001915050604051602081830303815290604052805190602001206001600083815260200190815260200160002060010160405160200180828054600181600116156101000203166002900480156111f05780601f106111ce5761010080835404028352918201916111f0565b820191906000526020600020905b8154815290600101906020018083116111dc575b505091505060405160208183030381529060405280519060200120141561127f576040517f08c379a00000000000000000000000000000000000000000000000000000000081526004018080602001828103825260198152602001807f436f6e74657374616e7420616c7265616479206578697374730000000000000081525060200191505060405180910390fd5b8080600101915050611101565b5060036000815480929190600101919050555060608290506000815111156113a15760606112b9846117be565b90506040518060e001604052806003548152602001898152602001600081526020018881526020018781526020018681526020018281525060016000600354815260200190815260200160002060008201518160000155602082015181600101908051906020019061132c929190611955565b50604082015181600201556060820151816003019080519060200190611353929190611955565b506080820151816004015560a082015181600501908051906020019061137a929190611955565b5060c0820151816006019080519060200190611397929190611955565b5090505050611491565b6040518060e0016040528060035481526020018881526020016000815260200187815260200186815260200185815260200160405180602001604052806000815250815250600160006003548152602001908152602001600020600082015181600001556020820151816001019080519060200190611421929190611955565b50604082015181600201556060820151816003019080519060200190611448929190611955565b506080820151816004015560a082015181600501908051906020019061146f929190611955565b5060c082015181600601908051906020019061148c929190611955565b509050505b50505050505050565b60026020528060005260406000206000915090508060000160009054906101000a900460ff16908060010154908060020160009054906101000a900460ff16905083565b600460009054906101000a900460ff1681565b6001602052806000526040600020600091509050806000015490806001018054600181600116156101000203166002900480601f0160208091040260200160405190810160405280929190818152602001828054600181600116156101000203166002900480156115a35780601f10611578576101008083540402835291602001916115a3565b820191906000526020600020905b81548152906001019060200180831161158657829003601f168201915b505050505090806002015490806003018054600181600116156101000203166002900480601f0160208091040260200160405190810160405280929190818152602001828054600181600116156101000203166002900480156116475780601f1061161c57610100808354040283529160200191611647565b820191906000526020600020905b81548152906001019060200180831161162a57829003601f168201915b505050505090806004015490806005018054600181600116156101000203166002900480601f0160208091040260200160405190810160405280929190818152602001828054600181600116156101000203166002900480156116eb5780601f106116c0576101008083540402835291602001916116eb565b820191906000526020600020905b8154815290600101906020018083116116ce57829003601f168201915b505050505090806006018054600181600116156101000203166002900480601f0160208091040260200160405190810160405280929190818152602001828054600181600116156101000203166002900480156117895780601f1061175e57610100808354040283529160200191611789565b820191906000526020600020905b81548152906001019060200180831161176c57829003601f168201915b5050505050905087565b60035481565b6000809054906101000a900473ffffffffffffffffffffffffffffffffffffffff1681565b60606000825114156117e157604051806020016040528060008152509050611908565b60606040518060600160405280604081526020016119fb6040913990506000600360028551018161180e57fe5b0460040290506060602082016040519080825280601f01601f19166020018201604052801561184c5781602001600182028038833980820191505090505b509050818152600183018586518101602084015b818310156118c7576003830192508251603f8160121c1685015160f81b8252600182019150603f81600c1c1685015160f81b8252600182019150603f8160061c1685015160f81b8252600182019150603f811685015160f81b825260018201915050611860565b6003895106600181146118e157600281146118f1576118fc565b613d3d60f01b60028303526118fc565b603d60f81b60018303525b50505050508093505050505b919050565b50805460018160011615610100020316600290046000825580601f106119335750611952565b601f01602090049060005260206000209081019061195191906119d5565b5b50565b828054600181600116156101000203166002900490600052602060002090601f016020900481019282601f1061199657805160ff19168380011785556119c4565b828001600101855582156119c4579182015b828111156119c35782518255916020019190600101906119a8565b5b5090506119d191906119d5565b5090565b6119f791905b808211156119f35760008160009055506001016119db565b5090565b9056fe4142434445464748494a4b4c4d4e4f505152535455565758595a6162636465666768696a6b6c6d6e6f707172737475767778797a303132333435363738392b2f4f6e6c792061646d696e2063616e20706572666f726d207468697320616374696f6ea265627a7a72315820d0c39f51926f6fc328c517474c8f8acb486335140ef3f966e0bb39caa1daad4764736f6c63430005100032",
  "source": "// SPDX-License-Identifier: MIT\r\npragma solidity 0.5.16;\r\nimport 'base64-sol/base64.sol';\r\n\r\n\r\n\r\ncontract Contest {\r\n    struct Contestant {\r\n        uint id;\r\n        string name;\r\n        uint voteCount;\r\n        string party;\r\n        uint age;\r\n        string qualification;\r\n        string partyLogo;\r\n    }\r\n\r\n    struct Voter {\r\n        bool hasVoted;\r\n        uint vote;\r\n        bool isRegistered;\r\n    }\r\n\r\n    address public admin;\r\n    mapping(uint => Contestant) public contestants; \r\n    mapping(address => Voter) public voters;\r\n    uint public contestantsCount;\r\n    enum PHASE { reg, voting, done }\r\n    PHASE public state;\r\n\r\n    modifier onlyAdmin() {\r\n        require(msg.sender == admin, \"Only admin can perform this action\");\r\n        _;\r\n    }\r\n\r\n    modifier validState(PHASE x) {\r\n        require(state == x, \"Invalid state for this action\");\r\n        _;\r\n    }\r\n    \r\n    constructor() public{\r\n        admin = msg.sender;\r\n        state = PHASE.reg;\r\n    }\r\n\r\n    function changeState(PHASE x) public onlyAdmin {\r\n        require(uint(x) > uint(state), \"Invalid state transition\");\r\n        state = x;\r\n    }\r\n\r\n    function addContestant(\r\n        string memory _name,\r\n        string memory _party,\r\n        uint _age,\r\n        string memory _qualification,\r\n        string memory _partyLogo\r\n    ) public onlyAdmin validState(PHASE.reg) {\r\n        require(bytes(_name).length > 0, \"Name cannot be empty\");\r\n        for (uint i = 1; i <= contestantsCount; i++) {\r\n            require(\r\n                keccak256(abi.encodePacked(contestants[i].name)) !=\r\n                    keccak256(abi.encodePacked(_name)),\r\n                \"Contestant already exists\"\r\n            );\r\n        }\r\n        contestantsCount++;\r\n        bytes memory partyLogoBytes = bytes(_partyLogo);\r\n        if (partyLogoBytes.length > 0) {\r\n            string memory partyLogoBase64 = Base64.encode(bytes(_partyLogo));\r\n            contestants[contestantsCount] = Contestant(\r\n                contestantsCount,\r\n                _name,\r\n                0,\r\n                _party,\r\n                _age,\r\n                _qualification,\r\n                partyLogoBase64\r\n            );\r\n        } else {\r\n            contestants[contestantsCount] = Contestant(\r\n                contestantsCount,\r\n                _name,\r\n                0,\r\n                _party,\r\n                _age,\r\n                _qualification,\r\n                \"\"\r\n            );\r\n        }\r\n    }\r\n\r\n    function voterRegistration(address user) public onlyAdmin validState(PHASE.reg) {\r\n        voters[user].isRegistered = true;\r\n    }\r\n\r\n    function vote(uint _contestantId) public validState(PHASE.voting) {\r\n        require(voters[msg.sender].isRegistered, \"Voter is not registered\");\r\n        require(!voters[msg.sender].hasVoted, \"Voter has already voted\");\r\n        require(_contestantId <= contestantsCount, \"Invalid contestant ID\");\r\n        \r\n        contestants[_contestantId].voteCount++;\r\n        voters[msg.sender].hasVoted = true;\r\n        voters[msg.sender].vote = _contestantId;\r\n    }\r\n\r\n    function resetPhase() public onlyAdmin validState(PHASE.done) {\r\n        for (uint i = 1; i <= contestantsCount; i++) {\r\n            delete contestants[i];\r\n        }\r\n        contestantsCount = 0;\r\n        state = PHASE.reg;\r\n    }\r\n}\r\n",
  "sourcePath": "/Users/sunilkumarnaraganti/Downloads/mega_project/contest/contracts/Contest.sol",
  "compiler": {
    "name": "solc",
    "version": "0.5.16+commit.9c3226ce.Emscripten.clang"
  },
  "schemaVersion": "3.4.11",
  "updatedAt": "2023-04-15T04:36:20.251Z",
  "networkType": "ethereum",
  "devdoc": {
    "methods": {}
  },
  "userdoc": {
    "methods": {}
  }
}